:020000040800F2
:1000000000000120C5020008CB020008CF02000852
:1000100041030008450300088D03000800000000AC
:10002000000000000000000000000000D5030008F0
:10003000D903000800000000DD030008A107000844
:10004000F1030008F1030008F1030008F1030008C0
:10005000F1030008F1030008E10A0008010B0008A1
:10006000210B0008410B0008610B0008F103000898
:10007000F1030008F1030008F1030008F103000890
:10008000F1030008F1030008F1030008000000007C
:10009000000000000000000000000000810B0008CC
:1000A000F1030008F1030008F1030008F103000860
:1000B000F5060008F1030008F1030008F103000849
:1000C000F1030008F1030008F1030008F103000840
:1000D000F1030008F1030008F1030008000000002C
:1000E000C10B0008F1030008F10300080000000044
:1000F000000000000000000000000000F103000804
:1001000000000000F1030008F1030008F1030008FB
:1001100000000000000000000000000000000000DF
:10012000F1030008F1030008F1030008F1030008DF
:10013000F1030008000000000000000000000000C3
:10014000000000000000000000000000F1030008B3
:10015000F1030008F1030008F1030008F1030008AF
:10016000F1030008F1030008000000000000000097
:10017000000000000000000000000000000000007F
:1001800000000000F1030008000000000000000073
:10019000F103000800B583B000F0BAF9384B394AD2
:1001A0001360394A1360394900E02146384B9942BF
:1001B0000BD20A684B6801F10C0488689842F4D9A4
:1001C0001168196004330432F8E72E4B1A68314B7A
:1001D0009A4200D0FEE72C4B1A682F4B9A42F9D175
:1001E000274B2E4A13602E4A13602E4B05E0002049
:1001F000106004329342FAD80B462B4A934204D241
:10020000194651F8082B5B68F4E7244B1B6813B9B7
:10021000234B1B6803B1FEE700F07EFD694601A891
:1002200000F022F9214C224BE41AA4100025AC4224
:1002300014DC204C204BE41AA4100025AC4213DC43
:100240000099019800F069FD05461C4C1C4BE41A0E
:10025000A410002C0EDC284600F0E2F8144B53F8F2
:10026000253098470135E2E7134B53F8253098477E
:100270000135E3E7013C124B53F824309847E8E797
:10028000BABADECA0000002070000020F4030008A3
:100290000C0400087856341232547698740000200A
:1002A000600100200C0400081C0400081C04000865
:1002B0001C0400081C0400081C0400081C0400089E
:1002C0001C04000808B5FFF765FF00BEFEE71EF03E
:1002D000040F0CBFEFF30880EFF309807146414A29
:1002E00010472DE9F04182B004468846124B5E6B00
:1002F0009F6B9D6A1B6B13F0020F03D00E4BDB6AE2
:10030000002B0CDB0D4800F0B7F8CDF800803B4621
:1003100032462946204600F007F900BEFEE74BF6BC
:10032000AB6100F07BF90028ECD0034B4FF00042AA
:10033000DA6202B0BDE8F08100ED00E0A41C000824
:1003400000BEFEE71EF0040F0CBFEFF30880EFF3D2
:1003500009807146244A10472DE9F04182B00446D5
:100360008846084B5E6B9F6B9D6A074800F084F8D7
:10037000CDF800803B4632462946204600F0D4F8AE
:1003800000BEFEE700ED00E0B41C00081EF0040F04
:100390000CBFEFF30880EFF309807146134A104752
:1003A0002DE9F04182B004468846084B5E6B9F6B96
:1003B0009D6A074800F060F8CDF800803B46324661
:1003C0002946204600F0B0F800BEFEE700ED00E050
:1003D000C01C000800BEFEE700BEFEE700BEFEE750
:1003E00070470000E302000859030008A103000859
:0403F00000BEFEE766
:1003F400041D00080000002074000020041D0008F3
:1004040000000010000000107400002064010020AF
:080414000000001000000010C0
:10042000FEE7000008B503460C4A12685AB10B4AB1
:100430001068033323F003030344094A934206D8A8
:10044000064A136008BD054A06491160EFE700F04F
:1004500023FF0C2303604FF0FF30F3E77800002008
:1004600000FC00206401002001230360014B0B60AD
:10047000704700BF040000200FB400B583B004AB88
:1004800053F8042B01938021064800F037FF002821
:1004900003DD0146034800F037F803B05DF804EBD4
:1004A00004B07047800000202DE9F04385B0044679
:1004B0000F4643560BB10E461EE004252846214642
:1004C000ABBE0446384605B0BDE8F08314F9011B05
:1004D00004AA1A4402F8101C0133AB42F6D304AA52
:1004E0001344002203F8102C4FF00408E94640465C
:1004F0004946ABBE8046761B002EE3D03546102E13
:1005000028BF10250023E8E708B5FFF7CDFF08BD99
:1005100008B500F093F8024A024B9A6008BD00BF8C
:100520000000000800ED00E0F8B504460D4617464F
:100530001E462748FFF7A0FF21682648FFF79CFFCB
:1005400061682548FFF798FFA1682448FFF794FFEA
:10055000E1682348FFF790FF21692248FFF78CFFED
:1005600061692148FFF788FFA1692048FFF784FFF0
:10057000E1691F48FFF780FF1E48FFF77DFF29460E
:100580001D48FFF779FF1D4CE16A1D48FFF774FF16
:10059000216B1C48FFF770FFE16B1B48FFF76CFFF6
:1005A00015F0800F0AD115F4004F0CD11748FFF752
:1005B00063FF06991648FFF75FFFF8BD39461548F7
:1005C000FFF75AFFEFE731461348FFF755FFEDE716
:1005D000881B0008981B0008A81B0008B81B00080F
:1005E000C81B0008D81B0008E81B0008F81B0008FF
:1005F000081C0008181C0008241C000800ED00E07E
:10060000341C0008441C0008541C0008841C00080A
:100610008C1C0008641C0008741C000883691A887C
:100620008A4201D0002070470268033A012A03D8A9
:100630000233836101207047002070470C4B1A6819
:1006400042F001021A60002199601A6822F0847257
:1006500022F480321A60074A5A601A6822F4802213
:100660001A60D960044B4FF000629A60704700BF77
:10067000003802401030002400ED00E001384FF057
:1006800080439862704701384FF08043D8627047CA
:100690004FF08042136823F0010300F00100034390
:1006A00013607047014B1860704700BF00010020C5
:1006B0004FF08043586B70474FF080439A6922F0A7
:1006C000030242F001029A619A6922F0F00242F0BC
:1006D000C0029A611A6A22F00E0242F00A021A62FD
:1006E0001A6A42F001021A62DA6842F00202DA6023
:1006F0007047000008B54FF0804319691A6922F06D
:1007000001021A611A6922F002021A6111F0010F46
:1007100004D01A461B6923F001031361024B1B68C6
:1007200003B1984708BD00BF000100204FF080438F
:1007300000225A6270474FF08042136A23F00E0382
:10074000400000F00E00034313627047064B1A6826
:1007500022F001021A601A6822F002021A601A6876
:1007600042F004021A60704710E000E00B4B1A6878
:1007700022F001021A6058601A6842F001021A6001
:10078000064B1B6813F4803FFAD0044B1A6822F022
:1007900001021A6000225A609A60704710E000E07F
:1007A00008B50B4B1B785BB90A4B1A6822F00102A3
:1007B0001A601A6822F002021A6000225A609A60D7
:1007C000054B1B6803B19847024B1B6808BD00BF6F
:1007D0005C01002010E000E004010020114B1A68C9
:1007E00042F400221A601A6822F480221A609A6881
:1007F00042F001029A609A6822F002029A609A68B6
:1008000022F0F00242F0B0029A609A6822F460424C
:100810009A609A6822F4E0529A601A6842F4803230
:100820001A60704700380240032822D8DFE800F041
:10083000020A121A0F48036B012202FA01F119434E
:10084000016370470B48436B012202FA01F119431F
:10085000416370470748036C012202FA01F1194312
:10086000016470470348436C012202FA01F1194305
:10087000416470470038024000F01F024009012324
:100880009340024A42F82030704700BF00E100E088
:1008900010B44900C9B2012816D018B1022820D0DE
:1008A00010BC7047A1F10D03DBB2012BF8D9134C3A
:1008B00023680320884023EA000302F0030202FABF
:1008C00001F119432160EBE70D4C236803208840B8
:1008D00023EA000302F0030202FA01F11943216046
:1008E000DEE7084C23680320884023EA000302F077
:1008F000030202FA01F119432160D1E7000002402E
:10090000000402400008024010B4012816D018B1BB
:10091000022820D010BC7047A1F10D03DBB2012BDF
:10092000F8D9134C63680120884023EA000302F0E1
:10093000010202FA01F119436160EBE70D4C6368B3
:100940000120884023EA000302F0010202FA01F1CB
:1009500019436160DEE7084C63680120884023EAA0
:10096000000302F0010202FA01F119436160D1E7CC
:1009700000000240000402400008024010B4490098
:10098000C9B2012816D018B1022820D010BC704777
:10099000A1F10D03DBB2012BF8D9134CA36803209E
:1009A000884023EA000302F0030202FA01F119432E
:1009B000A160EBE70D4CA3680320884023EA000305
:1009C00002F0030202FA01F11943A160DEE7084CCC
:1009D000A3680320884023EA000302F0030202FA1E
:1009E00001F11943A160D1E7000002400004024078
:1009F0000008024010B4012816D018B1022820D0F7
:100A000010BC7047A1F10D03DBB2012BF8D9134CD8
:100A100063690120884023EA000302F0010202FA20
:100A200001F119436161EBE70D4C636901208840D6
:100A300023EA000302F0010202FA01F119436161A5
:100A4000DEE7084C63690120884023EA000302F0D6
:100A5000010202FA01F119436161D1E7000002408D
:100A6000000402400008024010B48900C9B2012805
:100A700016D018B1022820D010BC7047A1F10D0388
:100A8000DBB2012BF8D9134C236A0F20884023EAEC
:100A9000000302F00F0202FA01F119432162EBE7B1
:100AA0000D4C236A0F20884023EA000302F00F0256
:100AB00002FA01F119432162DEE7084C236A0F2094
:100AC000884023EA000302F00F0202FA01F1194301
:100AD0002162D1E700000240000402400008024009
:100AE00008B5054B1B6803B19847044A536943F0A6
:100AF0000103536108BD00BF08010020003C014014
:100B000008B5054B5B6803B19847044A536943F045
:100B10000203536108BD00BF08010020003C0140F2
:100B200008B5054B9B6803B19847044A536943F0E5
:100B30000403536108BD00BF08010020003C0140D0
:100B400008B5054BDB6803B19847044A536943F085
:100B50000803536108BD00BF08010020003C0140AC
:100B600008B5054B1B6903B19847044A536943F024
:100B70001003536108BD00BF08010020003C014084
:100B800008B50D4B5B6903B198470C4B5A6942F0AD
:100B900020025A615A6942F040025A615A6942F091
:100BA00080025A615A6942F480725A615A6942F469
:100BB00000725A6108BD00BF08010020003C0140DE
:100BC00008B50F4B9B6903B198470E4B5A6942F425
:100BD00080625A615A6942F400625A615A6942F469
:100BE00080525A615A6942F400525A615A6942F479
:100BF00080425A615A6942F400425A6108BD00BFFE
:100C000008010020003C014008B50D4B1B7813B1D2
:100C1000012B09D008BDFFF789FD0120FFF78BFDEF
:100C2000074B01221A70F5E7FFF742FD054B98606C
:100C30000020FFF780FD024B00221A70EAE700BF98
:100C40004C0100202401002008B54278064B53F8DF
:100C5000220000F059F9054900F062FA044900F059
:100C6000ABF900F0F9FA08BD240100200000FA44B5
:100C700000D0044710B504464FF4C860FFF776FD76
:100C80000122E178A078FFF7B5FE4FF4C860FFF7C6
:100C90006DFD0022E178A078FFF7ACFE10BD0000EA
:100CA0004378022B01D00020704710B50446002184
:100CB0000220FFF7B9FD1C20FFF7DEFD40F21A60AD
:100CC000FFF7DCFC4CF25030FFF7DDFC0120FFF7B2
:100CD000DFFCFFF7F1FC0F48FFF7E4FC022261792B
:100CE0002079FFF7D5FD012261792079FFF7BCFE5D
:100CF0000122E178A078FFF7CBFD0022E178A0780F
:100D0000FFF73CFE0022E178A078FFF7FDFD01200F
:100D100010BD00BF090C0008704700B583B0FFF795
:100D20005DFDFFF713FD00210846FFF77DFD022161
:100D30000020FFF779FD01220D210220FFF7A8FD19
:100D400000220D210220FFF719FE00220D210220B2
:100D5000FFF7DAFD02238DF8013000238DF804300F
:100D60008DF805308DF8023005238DF80330684684
:100D7000FFF796FF04E001220D210220FFF73AFE63
:100D80006846FFF777FF6846FFF75EFF3228F2D923
:100D900000220D210220FFF72DFEF1E780F0004038
:100DA00002E000BF81F0004142001FBF5FEA410343
:100DB00092EA030F7FEA226C7FEA236C6AD04FEA43
:100DC0001262D2EB1363C1BFD21841404840414088
:100DD000B8BF5B42192B88BF704710F0004F40F43A
:100DE000000020F07F4018BF404211F0004F41F456
:100DF000000121F07F4118BF494292EA030F3FD022
:100E0000A2F1010241FA03FC10EB0C00C3F1200334
:100E100001FA03F100F0004302D5494260EB4000C3
:100E2000B0F5000F13D3B0F1807F06D340084FEA2E
:100E3000310102F10102FE2A51D2B1F1004F40EB23
:100E4000C25008BF20F0010040EA0300704749008B
:100E500040EB000010F4000FA2F10102EDD1B0FA56
:100E600080FCACF1080CB2EB0C0200FA0CF0AABF4B
:100E700000EBC25052421843BCBFD04018437047E9
:100E800092F0000F81F4000106BF80F400000132EF
:100E9000013BB5E74FEA41037FEA226C18BF7FEAC6
:100EA000236C21D092EA030F04D092F0000F08BF08
:100EB0000846704790EA010F1CBF0020704712F0EF
:100EC0007F4F04D1400028BF40F00040704712F12E
:100ED00000723CBF00F50000704700F0004343F093
:100EE000FE4040F4000070477FEA226216BF0846C9
:100EF0007FEA23630146420206BF5FEA412390EA8C
:100F0000010F40F4800070474FF0000304E000BF81
:100F100010F0004348BF40425FEA000C08BF704732
:100F200043F0964301464FF000001CE050EA0102F6
:100F300008BF70474FF000030AE000BF50EA01020B
:100F400008BF704711F0004302D5404261EB4101F8
:100F50005FEA010C02BF84460146002043F0B6431D
:100F600008BFA3F18053A3F50003BCFA8CF2083A42
:100F7000A3EBC25310DB01FA02FC634400FA02FC4B
:100F8000C2F12002BCF1004F20FA02F243EB020052
:100F900008BF20F00100704702F1200201FA02FCB4
:100FA000C2F1200250EA4C0021FA02F243EB0200A7
:100FB00008BF20EADC7070474FF0FF0C1CEAD052EB
:100FC0001EBF1CEAD15392EA0C0F93EA0C0F6FD0AC
:100FD0001A4480EA010C400218BF5FEA41211ED08A
:100FE0004FF0006343EA501043EA5111A0FB013176
:100FF0000CF00040B1F5000F3EBF490041EAD3714B
:101000005B0040EA010062F17F02FD2A1DD8B3F1C6
:10101000004F40EBC25008BF20F00100704790F035
:10102000000F0CF0004C08BF49024CEA502040EA87
:1010300051207F3AC2BFD2F1FF0340EAC25070474D
:1010400040F400004FF00003013A5DDC12F1190F8B
:10105000DCBF00F000407047C2F10002410021FAFD
:1010600002F1C2F1200200FA02FC5FEA310040F115
:10107000000053EA4C0308BF20EADC70704792F08E
:10108000000F00F0004C02BF400010F4000F013AC6
:10109000F9D040EA0C0093F0000F01F0004C02BFC1
:1010A000490011F4000F013BF9D041EA0C018FE730
:1010B0000CEAD15392EA0C0F18BF93EA0C0F0AD036
:1010C00030F0004C18BF31F0004CD8D180EA01005C
:1010D00000F00040704790F0000F17BF90F0004FF5
:1010E000084691F0000F91F0004F14D092EA0C0FD7
:1010F00001D142020FD193EA0C0F03D14B0218BF6A
:10110000084608D180EA010000F0004040F0FE40AF
:1011100040F40000704740F0FE4040F4400070474B
:101120004FF0FF0C1CEAD0521EBF1CEAD15392EACA
:101130000C0F93EA0C0F69D0A2EB030280EA010CBA
:1011400049024FEA402037D04FF0805343EA111153
:1011500043EA10130CF000408B4238BF5B0042F1B1
:101160007D024FF4000C8B4224BF5B1A40EA0C0056
:10117000B3EB510F24BFA3EB510340EA5C00B3EB88
:10118000910F24BFA3EB910340EA9C00B3EBD10F76
:1011900024BFA3EBD10340EADC001B0118BF5FEAC8
:1011A0001C1CE0D1FD2A3FF650AF8B4240EBC250F1
:1011B00008BF20F0010070470CF0004C4CEA5020B2
:1011C0007F32C2BFD2F1FF0340EAC250704740F401
:1011D00000004FF00003013A37E792F0000F00F0F3
:1011E000004C02BF400010F4000F013AF9D040EA71
:1011F0000C0093F0000F01F0004C02BF490011F405
:10120000000F013BF9D041EA0C0195E70CEAD153FC
:1012100092EA0C0F08D142027FF47DAF93EA0C0FE3
:101220007FF470AF084676E793EA0C0F04D14B02C7
:101230003FF44CAF08466EE730F0004C18BF31F079
:10124000004CCAD130F000427FF45CAF31F0004373
:101250007FF43CAF5FE700BF42000ED2B2F1FE4F19
:101260000BD34FF09E03B3EB126209D44FEA002375
:1012700043F0004323FA02F070474FF0000070473C
:1012800012F1610F01D1420202D14FF0FF307047DD
:101290004FF00000704700BF014B1868704700BF57
:1012A0000C00002030B5141E05469BB0184605DA28
:1012B0008B232B604FF0FF301BB030BD4FF4027317
:1012C000ADF80C3014BF04F1FF33234602930593AD
:1012D0004FF6FF7300910491ADF80E3002461E9B4D
:1012E0006946284600F072F8431CBCBF8B232B6074
:1012F000002CE1D0009B00221A70DDE707B50093B7
:1013000013460A46014603480068FFF7CBFF03B0C7
:101310005DF804FB0C0000202DE9F0478E689E422A
:1013200082460C469046994637D88A8912F4906FC7
:1013300031D0256809696F1A6569022305EB4505F7
:1013400095FBF3F509F101033B449D4238BF1D466F
:10135000530530D5294600F07DFB064650B90C23D5
:10136000CAF80030A38943F04003A3814FF0FF3057
:10137000BDE8F0873A46216900F0FAFAA38923F420
:10138000906343F08003A381266165613E44ED1BB9
:101390002660A5604E464E4500D94E46324641462F
:1013A000206800F0F0FAA3689B1BA36023681E442A
:1013B00026600020DCE72A4600F0A6FB064600284F
:1013C000E2D12169504600F0F7FAC8E72DE9F04F65
:1013D0009DB0804603938B891D060C4616460FD59B
:1013E0000B696BB9402100F035FB2060206128B902
:1013F0000C23C8F800304FF0FF30C7E04023636192
:101400000023099320238DF8293030238DF82A30CA
:101410004FF0010B37463D4615F8013B0BB1252B2C
:101420003ED1B7EB060A0BD0534632462146404622
:10143000FFF772FF013000F0A480099B5344099329
:101440003B78002B00F09D8000234FF0FF32CDE968
:101450000523049307938DF853301A932F460522E2
:1014600017F8011B4F4800F033FA049BD0B9D90696
:1014700044BF20228DF853201A0744BF2B228DF839
:1014800053202A782A2A15D0079A2F4600200A25A9
:10149000394611F8013B303B092B4DD9B8B10FE06B
:1014A0002F46B8E73F4A801A0BFA00F01843049021
:1014B0003D46D3E7039A111D12680391002A01DB10
:1014C000079204E0524243F00203079204933B78F0
:1014D0002E2B0CD17B782A2B33D1039B1A1D1B6832
:1014E0000392002BB8BF4FF0FF33023705932E4D08
:1014F00039780322284600F0EBF938B14023401B2D
:1015000003FA00F0049B034301370493397827481A
:101510008DF8281006227E1C00F0DAF9002838D059
:10152000234B13BB039B073323F0070308330393B9
:10153000099B4B4409936DE705FB023201200F46DE
:10154000A6E700230137059319460A25384610F807
:10155000012B303A092A03D9002BC8D00591C6E7E0
:1015600005FB012101230746F0E703AB0093224668
:10157000104B04A94046AFF30080B0F1FF3F814615
:10158000D6D1A3895B063FF536AF09981DB0BDE8FB
:10159000F08F03AB00932246064B04A9404600F0AF
:1015A00081F8EAE7D01C0008D61C0008DA1C000805
:1015B00000000000191300082DE9F04791461F466E
:1015C0008A680B69DDF820809342B8BF1346C9F8DA
:1015D000003091F8432006460C4612B10133C9F899
:1015E00000302368990642BFD9F800300233C9F8A9
:1015F0000030256815F0060507D104F1190AE368E3
:10160000D9F800209B1AAB4228DC94F843302268BA
:10161000003318BF012392062DD404F1430239464A
:101620003046C047013020D02368E568D9F8002053
:1016300003F00603042B08BFAD1AA36822690CBF90
:1016400025EAE57500259342C4BF9B1AED184FF0BB
:1016500000091A344D451AD1002008E001235246F2
:1016600039463046C047013003D14FF0FF30BDE866
:10167000F0870135C3E7E1185A1C302081F8430098
:10168000224494F8451082F843100233C5E7012341
:10169000224639463046C0470130E6D009F10109FB
:1016A000D8E700002DE9F04301F1430C0C46097E18
:1016B00085B06E291746064698460C9A00F0B3800E
:1016C00022D8632936D00AD8002900F0B9805829D9
:1016D00000F0838004F1420584F8421032E064296E
:1016E00001D06929F6D120681368050603F10401C9
:1016F0002AD51B681160002B03DA2D225B4284F887
:1017000043206F480A2239E0732900F09D8008D8F1
:101710006F2920D07029DDD1236843F02003236096
:1017200003E0752917D07829D4D1782384F845307F
:10173000644855E01368191D1B68116004F14205E7
:1017400084F8423001238CE01B68116010F0400FD8
:1017500018BF1BB2CFE713682568181D1060280654
:1017600001D51B6802E06806FBD51B8854486F2929
:1017700014BF0A220822002184F843106568A5607E
:10178000002DC0F29580216821F004012160002B1A
:101790003DD1002D40F08E806546082A0BD123688C
:1017A000DB0708D5236962689A42DEBF302305F85B
:1017B000013C05F1FF35ACEB05032361CDF800805A
:1017C0003B4603AA21463046FFF7F6FE01304DD1D5
:1017D0004FF0FF3005B0BDE8F083394884F845107C
:1017E000136821681D1D1B6815600A060BD5CA0702
:1017F00044BF41F0200121601BB9226822F0200281
:1018000022601022B7E74D0648BF9BB2EFE765465E
:10181000B3FBF2F102FB1133C35C05F8013D0B464B
:101820000029F5D1B9E7136825686169181D1060B2
:1018300028061B6801D5196002E06A06FBD51980ED
:10184000002323616546B9E71368191D11601D68FF
:1018500062680021284600F03BF808B1401B606038
:1018600063682361002384F84330A7E723692A468D
:1018700039463046C0470130AAD023689B0713D4AD
:10188000E068039B9842B8BF1846A3E701234A4685
:1018900039463046C04701309AD00135E368039A93
:1018A0009B1AAB42F2DCEBE7002504F11909F5E7DE
:1018B000002BACD1037884F8423004F142056CE788
:1018C000E11C0008F21C00080000000000000000FD
:1018D00001F0FF01102A2BDB10F0070F08D010F8E1
:1018E000013B013A8B422DD010F0070F42B3F6D1E5
:1018F000F0B441EA012141EA014122F007047FF0FE
:1019000000070023F0E80256083C85EA010586EA54
:10191000010685FA47F5A3FA87F586FA47F6A5FA90
:1019200087F68EB9EED1F0BC01F0FF0102F007029C
:1019300032B110F8013B013A83EA010313B1F8D147
:101940000020704701387047002D06BF3546033828
:10195000073815F0010F07D1013015F4807F02BF61
:10196000013015F4C03F0130F0BC0138704700BFB2
:1019700010B5431E0A44914200D110BD11F8014B2D
:1019800003F8014FF7E7884210B501EB020307D8CF
:10199000421E99420AD011F8014B02F8014FF8E7B4
:1019A0008342F5D98118D21AD34200D110BD13F861
:1019B000014D01F8014DF7E738B50546002945D03E
:1019C00051F8043C0C1F002BB8BFE41800F0D2F80B
:1019D0001F4A1368104633B9636014602846BDE897
:1019E000384000F0C8B8A3420CD92168621893426D
:1019F00004BF1A685B68636004BF52182260046009
:101A0000ECE713465A680AB1A242FAD91968581885
:101A1000A0420BD120680144581882421960DDD1E0
:101A2000106852685A6001441960D7E702D90C2344
:101A30002B60D3E7206821188A4204BF11685268DE
:101A4000626004BF091821605C60C7E738BD00BF51
:101A50005001002070B5CD1C25F0030508350C2D74
:101A600038BF0C25002D064601DBA94203D90C2303
:101A70003360002070BD00F07DF8214A14682146D3
:101A800091B9204C23681BB9304600F063F8206000
:101A90002946304600F05EF8431C24D10C23336005
:101AA000304600F068F8E4E70B685B1B18D40B2B9A
:101AB0000FD90B60CD50CC18304600F05CF804F123
:101AC0000B00231D20F00700C31AD3D05A42E25066
:101AD000D0E78C424B6816BF636013600C46EBE79F
:101AE0000C464968CCE7C41C24F00304A04205D08E
:101AF000211A304600F02EF80130CFD02560DBE708
:101B00005001002054010020F8B5074614460E4647
:101B100021B91146BDE8F840FFF79CBF22B9FFF795
:101B20004BFF25462846F8BD00F026F8A0420FD20C
:101B300021463846FFF78EFF05460028F2D0314691
:101B40002246FFF715FF31463846FFF735FFE9E734
:101B50003546E7E738B5064C0023054608462360BE
:101B6000FEF760FC431C02D1236803B12B6038BD33
:101B7000580100207047704751F8043C181F002B93
:101B8000BCBF0B58C0187047537461636B206672FA
:101B9000616D653A0A000000205230203D2020256A
:101BA0003038580A00000000205231203D20202506
:101BB0003038580A00000000205232203D202025F5
:101BC0003038580A00000000205233203D202025E4
:101BD0003038580A0000000020523132203D2025C4
:101BE0003038580A00000000204C52203D202025AB
:101BF0003038580A00000000205043203D202025A6
:101C00003038580A0000000020505352203D202553
:101C10003038580A000000004653522F4641523ACD
:101C20000A0000002043465352203D202025303832
:101C3000580A00002048465352203D2020253038C5
:101C4000580A00002044465352203D2020253038B9
:101C5000580A00002041465352203D2020253038AC
:101C6000580A0000204D4D464152203D2025303875
:101C7000580A00002042464152203D20202530389D
:101C8000580A00004D6973630A000000204C522F6F
:101C90004558435F52455455524E3D2025303858E3
:101CA0000A0000005B486172644661756C745D0AED
:101CB000000000005B4275734661756C745D0A003C
:101CC0005B55736167654661756C745D0A00000061
:101CD000232D302B2000686C4C0065666745464715
:101CE0000030313233343536373839414243444598
:101CF0004600303132333435363738396162636407
:031D000065660015
:101D0400785634127C0000200000000010000020EF
:101D140000000000000000000000000000000000BF
:101D240000000000000000000000000000000000AF
:101D3400000000000000000000000000000000009F
:101D4400000000000000000000000000000000008F
:101D5400000000000000000000000000000000007F
:101D6400000000000000000000000000000000006F
:041D740032547698D7
:040000050800019559
:00000001FF
